{
  "contractName": "IncrementContract",
  "abi": [
    {
      "inputs": [],
      "name": "incrementCount",
      "outputs": [],
      "stateMutability": "nonpayable",
      "type": "function"
    },
    {
      "inputs": [],
      "name": "readCount",
      "outputs": [
        {
          "internalType": "uint256",
          "name": "",
          "type": "uint256"
        }
      ],
      "stateMutability": "view",
      "type": "function",
      "constant": true
    }
  ],
  "bytecode": "0x60806040526000805534801561001457600080fd5b50610167806100246000396000f3fe608060405234801561001057600080fd5b50600436106100365760003560e01c8063dbf89bd31461003b578063e5071b8e14610059575b600080fd5b610043610063565b604051610050919061009e565b60405180910390f35b61006161006c565b005b60008054905090565b60008081548092919061007e906100e8565b9190505550565b6000819050919050565b61009881610085565b82525050565b60006020820190506100b3600083018461008f565b92915050565b7f4e487b7100000000000000000000000000000000000000000000000000000000600052601160045260246000fd5b60006100f382610085565b91507fffffffffffffffffffffffffffffffffffffffffffffffffffffffffffffffff821415610126576101256100b9565b5b60018201905091905056fea2646970667358221220eedaf182db1ee86c0b19dfbe1fe015b2263ed676b572fcc88ca3189fd68de12664736f6c634300080a0033",
  "immutableReferences": {},
  "source": "// SPDX-License-Identifier: MIT\npragma solidity >=0.4.22 <0.9.0;\n\ncontract IncrementContract {\n  uint count = 0;\n\n  function incrementCount() external {\n    count++;\n  }\n\n  function readCount() external view returns (uint) {\n    return count;\n  }\n}\n",
  "sourcePath": "/Users/janderson/repos/personal/test-increment-project/contracts/IncrementContract.sol",
  "compiler": {
    "name": "solc",
    "version": "0.8.10+commit.fc410830.Emscripten.clang"
  },
  "schemaVersion": "3.4.3",
  "updatedAt": "2021-12-28T06:47:01.120Z",
  "networkType": "ethereum",
  "devdoc": {
    "kind": "dev",
    "methods": {},
    "version": 1
  },
  "userdoc": {
    "kind": "user",
    "methods": {},
    "version": 1
  }
}